:10000000803126280800FF347E1480312100101E24
:1000100010282000101E10288731EE278031242858
:100020000B1F24282100141E1C282000141E1C282D
:10003000A3317623803124282100111C242820009C
:10004000111C2428A33169237E1009002000030815
:10005000A00080312B28803103208031E600B130B0
:100060008400A2308500CE3086000030870000304A
:10007000FF000530A3313623803164308400A43082
:100080008500C3308600013087000030FF001A3041
:10009000A33136238031E8308400233085000830D6
:1000A000FE000430FF00A3312A238031FB01FC0154
:1000B000FD01DD01DE01DF01E001E101E201E3011B
:1000C000E401E501BB308400003085001330FE0000
:1000D0000030FF00A3312A2380312030840001301A
:1000E00085002B30FE000030FF00A3312A237E1054
:1000F0002000A3311E2B210043084404031DD628F1
:1001000020005E08AA005D08A9000330AB000030A3
:10011000AC00A4317E24803120002A088500290803
:10012000840058308407A830853D0008CD004D0874
:10013000D2005E08AA005D08A9000330AB000030C1
:10014000AC00A4317E24803120002A0885002908D3
:10015000840059308407A830853D0008CD004D0843
:10016000D3005E08AA005D08A9000330AB00003090
:10017000AC00A4317E24803120002A0885002908A3
:1001800084005A308407A830853D0008CD004D0812
:10019000D4006230C2000030C30021004408850052
:1001A000430884006A308407A830132C43034404B6
:1001B000031D0A2A20005E08AA005D08A90003307A
:1001C000AB000030AC00A4317E24803120002A082E
:1001D00085002908840058308407A830853D000830
:1001E000CD004D08D2005E08AA005D08A9000330CA
:1001F000AB000030AC00A4317E24803120002A08FE
:1002000085002908840059308407A830853D0008FE
:10021000CD004D08D3005E08AA005D08A900033098
:10022000AB000030AC00A4317E24803120002A08CD
:100230008500290884005A308407A830853D0008CD
:10024000CD004D08D4006230C2000030C300210050
:10025000440885004308840084308407A830853D25
:1002600000082000CD00CE014D08C4004E08C50096
:100270005208CF004F08C6005308D0005008C700EE
:100280005408D1005108C8009B31862380312000DA
:100290005E08AA005D08A9000330AB000030AC0086
:1002A000A4317E24803120002A088500290884009A
:1002B00058308407A830853D0008CD004D08D20095
:1002C0005E08AA005D08A9000330AB000030AC0056
:1002D000A4317E24803120002A088500290884006A
:1002E00059308407A830853D0008CD004D08D30063
:1002F0005E08AA005D08A9000330AB000030AC0026
:10030000A4317E24803120002A0885002908840039
:100310005A308407A830853D0008CD004D08D40030
:100320006230C2000030C300210044088500430849
:1003300084006A308407A830853D00082000CD0085
:10034000CE014D08C4004E08C5005208CF004F082A
:10035000C6005308D0005008C7005408D100510807
:10036000C8009B318623803120005E08AA005D080A
:10037000A9000330AB000030AC00A4317E248031F2
:1003800020002A0885002908840058308407A830F6
:10039000853D0008CD004D08D2005E08AA005D082A
:1003A000A9000330AB000030AC00A4317E248031C2
:1003B00020002A0885002908840059308407A830C5
:1003C000853D0008CD004D08D3005E08AA005D08F9
:1003D000A9000330AB000030AC00A4317E24803192
:1003E00020002A088500290884005A308407A83094
:1003F000853D0008CD004D08D4006230C2000030B9
:10040000C300210044088500430884007730840736
:10041000A830132C20005E08AA005D08A900033054
:10042000AB000030AC00A4317E24803120002A08CB
:1004300085002908840058308407A830853D0008CD
:10044000CD004D08D2005E08AA005D08A900033067
:10045000AB000030AC00A4317E24803120002A089B
:1004600085002908840059308407A830853D00089C
:10047000CD004D08D3005E08AA005D08A900033036
:10048000AB000030AC00A4317E24803120002A086B
:100490008500290884005A308407A830853D00086B
:1004A000CD004D08D4006230C2000030C3002100EE
:1004B00044088500430884009C308407A830853DAB
:1004C00000082000CD00CE014D08C4004E08C50034
:1004D0005208CF004F08C6005308D0005008C7008C
:1004E0005408D1005108C8009B3186238031200078
:1004F0005E08AA005D08A9000330AB000030AC0024
:10050000A4317E24803120002A0885002908840037
:1005100058308407A830853D0008CD004D08D20032
:100520005E08AA005D08A9000330AB000030AC00F3
:10053000A4317E24803120002A0885002908840007
:1005400059308407A830853D0008CD004D08D30000
:100550005E08AA005D08A9000330AB000030AC00C3
:10056000A4317E24803120002A08850029088400D7
:100570005A308407A830853D0008CD004D08D400CE
:100580006230C2000030C3002100440885004308E7
:10059000840084308407A830853D00082000CD0009
:1005A000CE014D08C4004E08C5005208CF004F08C8
:1005B000C6005308D0005008C7005408D1005108A5
:1005C000C8009B318623803120005E08AA005D08A8
:1005D000A9000330AB000030AC00A4317E24803190
:1005E00020002A0885002908840058308407A83094
:1005F000853D0008CD004D08D2005E08AA005D08C8
:10060000A9000330AB000030AC00A4317E2480315F
:1006100020002A0885002908840059308407A83062
:10062000853D0008CD004D08D3005E08AA005D0896
:10063000A9000330AB000030AC00A4317E2480312F
:1006400020002A088500290884005A308407A83031
:10065000853D0008CD004D08D4006230C200003056
:10066000C300210044088500430884006A308407E1
:10067000A830853D00082000CD00CE014D08C40003
:100680004E08C5005208CF004F08C6005308D000DE
:100690005008C7005408D1005108C8009B31862378
:1006A000803120005E08AA005D08A9000330AB007D
:1006B0000030AC00A4317E24803120002A0885005F
:1006C0002908840058308407A830853D0008CD00F3
:1006D0004D08D2005E08AA005D08A9000330AB00F7
:1006E0000030AC00A4317E24803120002A0885002F
:1006F0002908840059308407A830853D0008CD00C2
:100700004D08D3005E08AA005D08A9000330AB00C5
:100710000030AC00A4317E24803120002A088500FE
:10072000290884005A308407A830853D0008CD0090
:100730004D08D4006230C2000030C30021004408DC
:1007400085004308840077308407A830853D000881
:100750002000CD00CE014D08C4004E08C50052084F
:10076000CF004F08C6005308D0005008C7005408F7
:10077000D1005108C8009B318623803120005E08DB
:10078000AA005D08A9000330AB000030AC00A43122
:100790007E24803120002A088500290884005830F2
:1007A0008407A830853D0008CD004D08D2005E08C2
:1007B000AA005D08A9000330AB000030AC00A431F2
:1007C0007E24803120002A088500290884005930C1
:1007D0008407A830853D0008CD004D08D3005E0891
:1007E000AA005D08A9000330AB000030AC00A431C2
:1007F0007E24803120002A088500290884005A3090
:100800008407A830853D0008CD004D08D400623033
:10081000C2000030C3002100440885004308840062
:1008200090308407A830853D00082000CD00CE011F
:100830004D08C4004E08C5005208CF004F08C6003E
:100840005308D0005008C7005408D1005108C80010
:100850009B31862380310D30210043064404031D63
:10086000432CC301C401053020005D065E0403195A
:10087000402C5D08013EDD0000305E3DDE00472C6F
:10088000DD01DE01472C0130C3070030C43D62307A
:100890002000A9000030AA009031312080310430BE
:1008A0002000CE000C30CD003330890B552CCD0B01
:1008B000552CCE0B552C0032080062302000C200AF
:1008C0000030C3000A30BB000030BC00A7316927EC
:1008D000843120003508D700D8015708BD005808DA
:1008E000BE00A531D525843120003C08C5003B0859
:1008F000C400FF30BB000030BC00A7316927843141
:1009000020003608BE003508BD00A631DB26843144
:1009100020003B08D9005908C600FF30BB0000305A
:10092000BC00A7316927843120003608BE00350895
:10093000BD00A631DB26843120003B08DA005A08CE
:10094000C700FF30BB000030BC00A73169278431ED
:1009500020003608BE003508BD00A631DB268431F4
:1009600020003B08DB005B08C8009B3186238431F4
:1009700062302000C2000030C3000A30BB000030EB
:10098000BC00A7316927843120003508D700D80181
:100990005708BD005808BE00A531D5258431200078
:1009A0003C08C5003B08C400FF30BB000030BC0061
:1009B000A7316927843120003608BE003508BD0004
:1009C000A631DB26843120003B08D9005908C60037
:1009D000FF30BB000030BC00A73169278431200004
:1009E0003608BE003508BD00A631DB268431200064
:1009F0003B08DA005A08C700FF30BB000030BC00DB
:100A0000A7316927843120003608BE003508BD00B3
:100A1000A631DB26843120003B08DB005B08C800E0
:100A20009B318623843162302000C2000030C30035
:100A30000A30BB000030BC00A73169278431200098
:100A40003508D700D8015708BD005808BE00A531A9
:100A5000D525843120003C08C5003B08C400FF3088
:100A6000BB000030BC00A731692784312000360864
:100A7000BE003508BD00A631DB26843120003B08CE
:100A8000D9005908C600FF30BB000030BC00A731B8
:100A90006927843120003608BE003508BD00A63124
:100AA000DB26843120003B08DA005A08C700FF30FB
:100AB000BB000030BC00A731692784312000360814
:100AC000BE003508BD00A631DB26843120003B087E
:100AD000DB005B08C8009B31862384316230200034
:100AE000C2000030C3000A30BB000030BC00A73198
:100AF0006927843120003508D700D8015708BD0088
:100B00005808BE00A531D525843120003C08C50019
:100B10003B08C400FF30BB000030BC00A731692790
:100B2000843120003608BE003508BD00A631DB2622
:100B3000843120003B08D9005908C600FF30BB00B3
:100B40000030BC00A7316927843120003608BE0080
:100B50003508BD00A631DB26843120003B08DA00D1
:100B60005A08C700FF30BB000030BC00A73169271E
:100B7000843120003608BE003508BD00A631DB26D2
:100B8000843120003B08DB005B08C8009B318623D2
:100B9000843162302000C2000030C3000A30BB0044
:100BA0000030BC00A7316927843120003508D70008
:100BB000D8015708BD005808BE00A531D52584319D
:100BC00020003C08C5003B08C400FF30BB000030DB
:100BD000BC00A7316927843120003608BE003508E3
:100BE000BD00A631DB26843120003B08D90059081E
:100BF000C600FF30BB000030BC00A731692784313C
:100C000020003608BE003508BD00A631DB26843141
:100C100020003B08DA005A08C700FF30BB00003054
:100C2000BC00A7316927843120003608BE00350892
:100C3000BD00A631DB26843120003B08DB005B08C9
:100C4000C8009B318623843162302000C20000300E
:100C5000C3000A30BB000030BC00A73169278431D3
:100C600020003508D700D8015708BD005808BE003D
:100C7000A531D525843120003C08C5003B08C400BF
:100C8000FF30BB000030BC00A73169278431200051
:100C90003608BE003508BD00A631DB2684312000B1
:100CA0003B08D9005908C600FF30BB000030BC002B
:100CB000A7316927843120003608BE003508BD0001
:100CC000A631DB26843120003B08DA005A08C70031
:100CD000FF30BB000030BC00A73169278431200001
:100CE0003608BE003508BD00A631DB268431200061
:100CF0003B08DB005B08C8009B31862384316230EF
:100D00002000C2000030C3000A30BB000030BC002D
:100D1000A7316927843120003508D700D80157084A
:100D2000BD005808BE00A531D525843120003C08FF
:100D3000C5003B08C400FF30BB000030BC00A73139
:100D40006927843120003608BE003508BD00A63171
:100D5000DB26843120003B08D9005908C600FF304B
:100D6000BB000030BC00A731692784312000360861
:100D7000BE003508BD00A631DB26843120003B08CB
:100D8000DA005A08C700FF30BB000030BC00A731B2
:100D90006927843120003608BE003508BD00A63121
:100DA000DB26843120003B08DB005B08C8009B3158
:100DB0008623843162302000C2000030C3000A3034
:100DC000BB000030BC00A731692784312000350802
:100DD000D700D8015708BD005808BE00A531D52559
:100DE000843120003C08C5003B08C400FF30BB0034
:100DF0000030BC00A7316927843120003608BE00CE
:100E00003508BD00A631DB26843120003B08D9001F
:100E10005908C600FF30BB000030BC00A73169276D
:100E2000843120003608BE003508BD00A631DB261F
:100E3000843120003B08DA005A08C700FF30BB00AD
:100E40000030BC00A7316927843120003608BE007D
:100E50003508BD00A631DB26843120003B08DB00CD
:100E60005B08C8009B318623843162302000A900D2
:100E70000030AA0090313120843107302000D800A2
:100E80001730D7006A30890B432FD70B432FD80B6D
:100E9000432F000001302200C5070030C63D083056
:100EA00045064604031D080062302000CF000030D4
:100EB000D000D101D201D301A531A9252200C5015D
:100EC000C60108007D03031D0800A431B624873144
:100ED00071082000A8007008A700DB2F610A8600B7
:100EE000013087002708C03F2808C13F0800610A79
:100EF000860001308700403F2702A100413F283B88
:100F0000A2002108A5002208A60061080A3E86006A
:100F100001308700403FA100413FA2002608220285
:100F2000031D942F250821020318982F0330C12F89
:100F30006108083E860001308700403FA100413F24
:100F4000A2006108033E860001308700403F27026F
:100F5000A300413F283BA40022082402031DB22F16
:100F6000210823020318C02F6108063E86000130C5
:100F700087000130810741310318810A0230C12FF7
:100F80000130A1006108860001308700210881003E
:100F90000130A1006108053E86000130870021086C
:100FA00081006108033E8600013087002708C03FAA
:100FB0002808C13F08000E0E890C0139A100A201CA
:100FC0002208003A0319E52FED2F2108003A0319F2
:100FD000772F013A03196E2FED2F08002700991D76
:100FE000F42FA331422387312700191EFA2FA33192
:100FF0004F2387312700991E0800A3315C23080086
:10100000A231AA22080020003B083C040319080072
:101010003B0886003C0887001600010403190800FD
:101020003F083D07C60040083E3DC7003B0886001C
:101030003C0887004231403FC400413FC50047089B
:101040004502031D252846084402031C0800003001
:10105000CA000030CB000030CC004108C400440876
:10106000CA004208C4004408CB004308C400440836
:10107000CC003E08AA003D08A9000330AB000030B8
:10108000AC00A4317E24883120003B0886003C0857
:101090008700403FC400413FC50029084407C800FD
:1010A0002A08453DC900CD01CE013F08400403197F
:1010B00008004E08AA004D08A9000330AB0000301C
:1010C000AC00A4317E248831200029084807AF00F5
:1010D0002A08493DB0004A30B1000030B200033068
:1010E000B3000030B400A5318025883101302000E4
:1010F000CD070030CE3D40084E02031D81283F0839
:101100004D020318080059282000AF01B00100303B
:10111000A331F7238831A63102268831AA30200076
:10112000D300A830D400913121218831A331D123BB
:1011300088312300C201A5313525883120002C08D3
:101140002300C10020002B082300C00020002A0833
:101150002300BF00200029082300BE0041084004EE
:101160003F043E04031946293E082100B000300820
:101170002300C207C21BCE284208803A6F3E0318E4
:10118000C7284208AE00AF01AE1BAF03C928AE01AD
:10119000AF012F08AD002E08AC00D2281030AC00F3
:1011A0000030AD002C082100B00030082300C20040
:1011B00042082100B000B10130082000A900210040
:1011C00031082000AA000330AB000030AC00A4318D
:1011D0007E24883120002A088500290884000130F7
:1011E0008407A830853D00082100B20032082000A5
:1011F000AF00230042082100B300B40133082000EF
:10120000A900210034082000AA000330AB00003000
:10121000AC00A4317E24883120002A0885002908EA
:10122000840002308407A830853D00082100B50005
:1012300035082000B000230042082100B600B701A5
:1012400036082000A900210037082000AA0003303A
:10125000AB000030AC00A4317E24883120002A0885
:1012600085002908840000308407A830853D0008E7
:10127000A4310B248831A63102268831AA302000FF
:10128000D300A830D400913121218831A331D1235A
:101290008831003A03199B2800302300B600003043
:1012A000B7000030B80042082100B000B10130089A
:1012B0002000A900210031082000AA000330AB0063
:1012C0000030AC00A4317E24883120002A0885003B
:1012D0002908840000308407A830853D00082100DB
:1012E000B20032082300B60042082100B000B1016C
:1012F00030082000A900210031082000AA00033096
:10130000AB000030AC00A4317E24883120002A08D4
:1013100085002908840001308407A830853D000835
:101320002100B20032082300B70042082100B000BB
:10133000B10130082000A900210031082000AA00D6
:101340000330AB000030AC00A4317E248831200093
:101350002A0885002908840002308407A830853DCA
:1013600000082100B20032082300B800A331D123C5
:101370008831A5313525883120002C082300C10093
:1013800020002B082300C00020002A082300BF00F3
:10139000200029082300BE00410840043F043E0409
:1013A0000319642A3E082100B00030082300C20758
:1013B000C21BEC294208803A6F3E0318E529420817
:1013C000B200B301B21BB303E729B201B301330882
:1013D000B1003208B000F0291030B0000030B10088
:1013E00030082100B00030082300C200420821006C
:1013F000B000B10130082000A90021003108200010
:10140000AA000330AB000030AC00A4317E24883148
:1014100020002A0885002908840001308407A830AC
:10142000853D00082100B20032082000AF002300F3
:1014300042082100B300B40133082000A9002100B4
:1014400034082000AA000330AB000030AC00A43107
:101450007E24883120002A08850029088400023073
:101460008407A830853D00082100B500350820001C
:10147000B000230042082100B600B7013608200062
:10148000A900210037082000AA000330AB0000307B
:10149000AC00A4317E24883120002A088500290868
:1014A000840000308407A830853D0008A331F7236D
:1014B0008831A63102268831AA302000D300A83016
:1014C000D400913121218831A331D1238831003AD0
:1014D0000319B92900302300B9000030BA000030E8
:1014E000BB0042082100B000B10130082000A90073
:1014F000210031082000AA000330AB000030AC000E
:10150000A4317E24883120002A088500290884001F
:1015100000308407A830853D00082100B200320861
:101520002300B90042082100B000B10130082000BA
:10153000A900210031082000AA000330AB000030D0
:10154000AC00A4317E24883120002A0885002908B7
:10155000840001308407A830853D00082100B200D6
:1015600032082300BA0042082100B000B10130085F
:101570002000A900210031082000AA000330AB00A0
:101580000030AC00A4317E24883120002A08850078
:101590002908840002308407A830853D0008210016
:1015A000B20032082300BB00B6302000A900013091
:1015B000AA000330AB000030AC00FF30AD00FF30BC
:1015C000AE00A731B327883120002A082300BD00D0
:1015D000200029082300BC00B9302000A9000130F8
:1015E000AA000330AB000030AC0023003D0820000F
:1015F000AE0023003C082000AD00A731B32788319E
:1016000020002A082300BD00200029082300BC0078
:101610000330B4000030B500340835040319182C29
:1016200000302000A9007030AA00230036082100F5
:10163000B00030082000AB00A531132588310130FF
:101640002000A9007030AA00230037082100B00054
:1016500030082000AB00A53113258831023020006E
:10166000A9007030AA00230038082100B00030081B
:101670002000AB00A5311325883103302000A900DC
:101680007030AA00230039082100B0003008200083
:10169000AB00A5311325883104302000A90070303B
:1016A000AA0023003A082100B00030082000AB0057
:1016B000A5311325883105302000A9007030AA001B
:1016C00023003B082100B00030082000AB00A5310A
:1016D0001325883106302000A9007030AA002300AD
:1016E0003D082100B00030082000AB00A5311325D3
:1016F000883107302000A9007030AA0023003C0880
:101700002100B00030082000AB00A531132588313E
:1017100009302100B1001E30B000E430890B8E2B5F
:10172000B00B8E2BB10B8E2B000000302000A900D7
:101730007030AA00A331A12388312100B000300805
:101740002300A40001302000A9007030AA00A331BA
:10175000A12388312100B00030082300A500023009
:101760002000A9007030AA00A331A12388312100F4
:10177000B00030082300A60003302000A90070301C
:10178000AA00A331A12388312100B0003008230032
:10179000A70004302000A9007030AA00A331A123C3
:1017A00088312100B00030082300A8000530200057
:1017B000A9007030AA00A331A12388312100B00014
:1017C00030082300A90006302000A9007030AA00CC
:1017D000A331A12388312100B00030082300AA00E2
:1017E00007302000A9007030AA00A331A12388315E
:1017F0002100B00030082300AB00A4302000A90075
:101800000130AA000830AB000030AC00FF30AD0062
:10181000FF30AE00A731B3278831200029082A0401
:101820000319182C01302300B4020030B53B0C2BF7
:10183000A331C023883120002C082300A3002000FE
:101840002B082300A20020002A082300A10020006A
:1018500029082300A00023082100A3002300220858
:101860002100A200230021082100A100230020085C
:101870002100A000A4019F31142708007B087C04EC
:10188000031D972C20006008AA005F08A900033000
:10189000AB000030AC00A4317E248C3120002A083B
:1018A00085002908840058308407A830853D000849
:1018B000CD004D08D2006008AA005F08A9000330DF
:1018C000AB000030AC00A4317E248C3120002A080B
:1018D00085002908840059308407A830853D000818
:1018E000CD004D08D3006008AA005F08A9000330AE
:1018F000AB000030AC00A4317E248C3120002A08DB
:101900008500290884005A308407A830853D0008E6
:10191000CD004D08D4006230C2000030C3007C0806
:1019200085007B0884006A308407A830C62F7B03BB
:101930007C04031DC62D20006008AA005F08A900D2
:101940000330AB000030AC00A4317E248C31200089
:101950002A0885002908840058308407A830853D6E
:101960000008CD004D08D2006008AA005F08A90059
:101970000330AB000030AC00A4317E248C31200059
:101980002A0885002908840059308407A830853D3D
:101990000008CD004D08D3006008AA005F08A90028
:1019A0000330AB000030AC00A4317E248C31200029
:1019B0002A088500290884005A308407A830853D0C
:1019C0000008CD004D08D4006230C2000030C300D2
:1019D0007C0885007B08840084308407A830853D1E
:1019E0000008CD00CE014D08C4004E08C5005208C5
:1019F000CF004F08C6005308D0005008C700540855
:101A0000D1005108C8009B3186238C31200060082A
:101A1000AA005F08A9000330AB000030AC00A4317D
:101A20007E248C3120002A08850029088400583043
:101A30008407A830853D0008CD004D08D20060081D
:101A4000AA005F08A9000330AB000030AC00A4314D
:101A50007E248C3120002A08850029088400593012
:101A60008407A830853D0008CD004D08D3006008EC
:101A7000AA005F08A9000330AB000030AC00A4311D
:101A80007E248C3120002A088500290884005A30E1
:101A90008407A830853D0008CD004D08D400623091
:101AA000C2000030C3007C0885007B0884006A30D7
:101AB0008407A830853D0008CD00CE014D08C40044
:101AC0004E08C5005208CF004F08C6005308D0008A
:101AD0005008C7005408D1005108C8009B31862324
:101AE0008C3120006008AA005F08A9000330AB0019
:101AF0000030AC00A4317E248C3120002A088500FF
:101B00002908840058308407A830853D0008CD009E
:101B10004D08D2006008AA005F08A9000330AB009E
:101B20000030AC00A4317E248C3120002A088500CE
:101B30002908840059308407A830853D0008CD006D
:101B40004D08D3006008AA005F08A9000330AB006D
:101B50000030AC00A4317E248C3120002A0885009E
:101B6000290884005A308407A830853D0008CD003C
:101B70004D08D4006230C2000030C3007C088500EC
:101B80007B08840077308407A830C62F20006008C7
:101B9000AA005F08A9000330AB000030AC00A431FC
:101BA0007E248C3120002A088500290884005830C2
:101BB0008407A830853D0008CD004D08D20060089C
:101BC000AA005F08A9000330AB000030AC00A431CC
:101BD0007E248C3120002A08850029088400593091
:101BE0008407A830853D0008CD004D08D30060086B
:101BF000AA005F08A9000330AB000030AC00A4319C
:101C00007E248C3120002A088500290884005A305F
:101C10008407A830853D0008CD004D08D40062300F
:101C2000C2000030C3007C0885007B0884009C3023
:101C30008407A830853D0008CD00CE014D08C400C2
:101C40004E08C5005208CF004F08C6005308D00008
:101C50005008C7005408D1005108C8009B318623A2
:101C60008C3120006008AA005F08A9000330AB0097
:101C70000030AC00A4317E248C3120002A0885007D
:101C80002908840058308407A830853D0008CD001D
:101C90004D08D2006008AA005F08A9000330AB001D
:101CA0000030AC00A4317E248C3120002A0885004D
:101CB0002908840059308407A830853D0008CD00EC
:101CC0004D08D3006008AA005F08A9000330AB00EC
:101CD0000030AC00A4317E248C3120002A0885001D
:101CE000290884005A308407A830853D0008CD00BB
:101CF0004D08D4006230C2000030C3007C0885006B
:101D00007B08840084308407A830853D0008CD001E
:101D1000CE014D08C4004E08C5005208CF004F0840
:101D2000C6005308D0005008C7005408D10051081D
:101D3000C8009B3186238C3120006008AA005F0810
:101D4000A9000330AB000030AC00A4317E248C31FC
:101D500020002A0885002908840058308407A8300C
:101D6000853D0008CD004D08D2006008AA005F083C
:101D7000A9000330AB000030AC00A4317E248C31CC
:101D800020002A0885002908840059308407A830DB
:101D9000853D0008CD004D08D3006008AA005F080B
:101DA000A9000330AB000030AC00A4317E248C319C
:101DB00020002A088500290884005A308407A830AA
:101DC000853D0008CD004D08D4006230C2000030CF
:101DD000C3007C0885007B0884006A308407A83033
:101DE000853D0008CD00CE014D08C4004E08C50059
:101DF0005208CF004F08C6005308D0005008C70053
:101E00005408D1005108C8009B3186238C31200032
:101E10006008AA005F08A9000330AB000030AC00E6
:101E2000A4317E248C3120002A08850029088400F2
:101E300058308407A830853D0008CD004D08D200F9
:101E40006008AA005F08A9000330AB000030AC00B6
:101E5000A4317E248C3120002A08850029088400C2
:101E600059308407A830853D0008CD004D08D300C7
:101E70006008AA005F08A9000330AB000030AC0086
:101E8000A4317E248C3120002A0885002908840092
:101E90005A308407A830853D0008CD004D08D40095
:101EA0006230C2000030C3007C0885007B088400DB
:101EB00077308407A830853D0008CD00CE014D085D
:101EC000C4004E08C5005208CF004F08C600530892
:101ED000D0005008C7005408D1005108C8009B31F9
:101EE00086238C3120006008AA005F08A900033017
:101EF000AB000030AC00A4317E248C3120002A08D5
:101F000085002908840058308407A830853D0008E2
:101F1000CD004D08D2006008AA005F08A900033078
:101F2000AB000030AC00A4317E248C3120002A08A4
:101F300085002908840059308407A830853D0008B1
:101F4000CD004D08D3006008AA005F08A900033047
:101F5000AB000030AC00A4317E248C3120002A0874
:101F60008500290884005A308407A830853D000880
:101F7000CD004D08D4006230C2000030C3007C08A0
:101F800085007B08840090308407A830853D0008D8
:101F9000CD00CE014D08C4004E08C5005208CF0048
:101FA0004F08C6005308D0005008C7005408D1009D
:101FB0005108C8009B3186238C310D307B067C0490
:101FC000031DF42FFB01FC01053020005F066004B7
:101FD0000319F12F5F08013EDF000030603DE00093
:101FE000F82FDF01E001F82F0130FB070030FC3D46
:101FF00062302000A9000030AA0090313120080092
:10200000080000302000B4000030B3000030B200FF
:102010000030B100291C14282D08B1072E08B23D4C
:102020002F08B33D3008B43D0130AD35AE0DAF0DD6
:10203000B00D890B15280130AC36AB0CAA0CA90CDD
:10204000890B1C282C082B042A042904031D0A28A8
:102050003408AC003308AB003208AA003108A900EC
:102060000800200029082A0403190800290886000E
:102070002A08870016000104031908008B130B13AC
:10208000290886002A088700403FAF00413FB00082
:10209000AD01AE01290886002A0887004231403F81
:1020A000AB00413FAC002C082E02031D59282B0821
:1020B0002D020318FC28B101B2012F088600300858
:1020C000870041310108AB00AC01310A6928AB350A
:1020D000AC0D890B6728AB1F782822000E15000075
:1020E00000000000000022000E1100000000822805
:1020F00022000E15000022000E110000000000005A
:102100000000000001302000B1070030B23D003077
:102110003202083003193102031C5D28B101B201FB
:102120002F088600300887000108AB00AC01310A97
:102130009B28AB35AC0D890B9928AB1FAA28220030
:102140000E15000000000000000022000E1100002B
:102150000000B42822000E15000022000E1100001D
:10216000000000000000000001302000B107003036
:10217000B23D00303202083003193102031C9028AE
:10218000B101B2012F0886003008870042310108F2
:10219000AB00AC01310ACE28AB35AC0D890BCC2895
:1021A000AB1FDD2822000E1500000000000000001B
:1021B00022000E1100000000E72822000E1500008A
:1021C00022000E110000000000000000000001309D
:1021D0002000B1070030B23D003032020830031950
:1021E0003102031CC2280330AF070030B03D01307C
:1021F000AD070030AE3D4A2822000E150000000059
:102200000000000022000E110000000022000E1548
:10221000000022000E11000000000000000000007D
:102220008530890B1129000022000E1500000000E6
:102230000000000022000E11000000008B170B1799
:102240000800200053088400540885000008D500C9
:10225000D6015508A9005608AA002A30AB00003064
:10226000AC00A4317E2491318C302000D700253081
:10227000D80029085707D9002A08583DDA0059081C
:102280002100A00020005A082100A1006230200097
:10229000BB000030BC00210021082000BE0021004E
:1022A00020082000BD000130BF000030C0000E300B
:1022B000C1000030C2009B31E1239131200054085D
:1022C000D6005308D500013055078400560803187E
:1022D000560A85000008D700D8015708A9005808F9
:1022E000AA002A30AB000030AC00A4317E2491312A
:1022F000E8302000D9002330DA0029085907DB0034
:102300002A085A3DDC005B082100A00020005C0880
:102310002100A10062302000BB000030BC00210081
:1023200021082000BE00210020082000BD00103040
:10233000BF000030C0000E30C1000030C2009B3131
:10234000E123913120005408D6005308D500023013
:102350005507840056080318560A85000008D70060
:10236000D8015708A9005808AA002A30AB0000304D
:10237000AC00A4317E249131E8302000D900233014
:10238000DA0029085907DB002A085A3DDC005B08FF
:102390002100A00020005C082100A1006230200084
:1023A000BB000030BC00210021082000BE0021003D
:1023B00020082000BD002430BF000030C0000E30D7
:1023C000C1000030C2009B31E1239131200054084C
:1023D000D6005308D500033055078400560803186B
:1023E000560A85000008D700D8015708A9005808E8
:1023F000AA002A30AB000030AC00A4317E24913119
:102400008C302000D9002530DA0029085907DB007C
:102410002A085A3DDC005B082100A00020005C086F
:102420002100A10062302000BB000030BC00210070
:1024300021082000BE00210020082000BD0033300C
:10244000BF000030C0000A30C1000030C2009B3124
:10245000E123913120005408D6005308D500033001
:102460005507840056080318560A850000089D3158
:102470008725913162302000A9000030AA009031F8
:10248000312008002000DB005B088600870101087E
:1024900066060319852A5B08860087010108D300B8
:1024A0005308E6005B08860087010108D300D401C9
:1024B0005308A9005408AA002A30AB000030AC0031
:1024C000A4317E2492318C302000D5002530D600F6
:1024D00029085507D7002A08563DD8005708D900C3
:1024E0005808DA006230BB000030BC005A08BE0059
:1024F0005908BD000130BF000030C0000E30C100DF
:102500000030C2009B31E123923120005B0A86003B
:1025100087010108210052060319C92A20005B081F
:1025200086008701413F2100D20020005B0A86001F
:1025300087010108D300D4015308A9005408AA0058
:102540002A30AB000030AC00A4317E249231E83058
:102550002000D5002330D60029085507D7002A08C7
:10256000563DD8005708D9005808DA006230BB0041
:102570000030BC005A08BE005908BD001030BF0032
:102580000030C0000E30C1000030C2009B31E1239A
:10259000923120005B08023E86008701010821007D
:1025A000510603190F2B20005B0886008701423F6C
:1025B0002100D10020005B08023E8600870101084F
:1025C000D300D4015308A9005408AA002A30AB0054
:1025D0000030AC00A4317E249231E8302000D500D8
:1025E0002330D60029085507D7002A08563DD800C1
:1025F0005708D9005808DA006230BB000030BC0030
:102600005A08BE005908BD002430BF000030C00089
:102610000E30C1000030C2009B31E1239231200016
:102620005B08033E8600870101082100500603195C
:102630005E2B20005B0886008701433F2100D0000D
:1026400020005B08033E860087010108D300D40107
:102650005308A9005408AA002A30AB000030AC008F
:10266000A4317E2492318C302000D5002530D60054
:1026700029085507D7002A08563DD8005708D90021
:102680005808DA006230BB000030BC005A08BE00B7
:102690005908BD003330BF000030C0000A30C1000F
:1026A0000030C2009B31E123923120005B08033EE1
:1026B0008600870101089D31872592316230200014
:1026C000A9000030AA009031312008002100A400A8
:1026D000A5313525933120002C082100AC002000C5
:1026E0002B082100AB0020002A082100AA002000AE
:1026F00029082100A90024080319AA2B0030200072
:10270000AC000030AB000030AA003C30A900210032
:102710002C082000B00021002B082000AF00210071
:102720002A082000AE00210029082000AD009031C9
:102730000120933120002C082100AC0020002B0840
:102740002100AB0020002A082100AA00200029084F
:102750002100A9002C082000AC0021002B0820003B
:10276000AB0021002A082000AA002100290820002F
:10277000A9000030B0000030AF000030AE003C30A7
:10278000AD009031012093312000290821003B0742
:10279000A00020002A0821003C3DA10020002B08B9
:1027A00021003D3DA20020002C0821003E3DA30059
:1027B0002308B4002208B3002108B2002008B100A9
:1027C000B41B0A2CB41BF02B3408031DF92B33085F
:1027D000031DF92BC0303102A830323B0318F92B0E
:1027E00021003408A8003308A7003208A6003108E9
:1027F000012C00302100A8000030A7000030A60006
:102800000030A5002808B4002708B3002608B2004D
:102810002508112C0030B4000030B300A830B200FD
:10282000BF30B1003408BE003308BD003208BC0020
:102830003108BB0000302000AC000030AB0000309D
:10284000AA003C30A90021003E082000B000210071
:102850003D082000AF0021003C082000AE00210010
:102860003B082000AD009B313323933120002A0820
:102870002100B000200029082100AF004F083006D9
:10288000031D442C4E082F06031908003008CF0002
:102890002F08CE003C302000A9000030AA00210003
:1028A00030082000AC0021002F082000AB00A6312A
:1028B0006726933120002908013E2100A00020084E
:1028C000AD003C302000BB000030BC0021003008CF
:1028D0002000BE0021002F082000BD00A531D52515
:1028E000933120003B082100A0002008AE00220008
:1028F0003B082100B80022003A082100B70022005E
:1029000039082100B600220038082100B5000A303D
:102910002000C2000030C30021002D08A000A1014A
:1029200020082000BD00210021082000BE006430E6
:10293000BB000030BC00A631DB26933120003C08F0
:10294000C5003B08C4009A31E122933120004208BF
:102950002100A2002208B5000A302000BB00003090
:10296000BC0021002D08A000A10120082000BD000E
:10297000210021082000BE00A631DB269331200073
:102980003B082100A2002208B6000A302000C20045
:102990000030C30021002E08A000A1012008200063
:1029A000BD00210021082000BE006430BB000030C3
:1029B000BC00A631DB26933120003C08C5003B0853
:1029C000C4009A31E1229331200042082100A20084
:1029D0002208B7000A302000BB000030BC002100F4
:1029E0002E08A000A10120082000BD002100210820
:1029F0002000BE00A631DB26933120003B082100D9
:102A0000A2002208B800B53092314222080062309C
:102A10002000CF000030D000D101D201D301A53178
:102A2000A925953162302000C2000030C3000A3071
:102A3000BB000030BC00A731692795312000350864
:102A4000D700D8015708BD005808BE00A531D525CC
:102A5000953120003C08C5003B08C400FF30BB0096
:102A60000030BC00A7316927953120003608BE0030
:102A70003508BD00A631DB26953120003B08D90082
:102A80005908C600FF30BB000030BC00A7316927E1
:102A9000953120003608BE003508BD00A631DB2682
:102AA000953120003B08DA005A08C700FF30BB0010
:102AB0000030BC00A7316927953120003608BE00E0
:102AC0003508BD00A631DB26953120003B08DB0030
:102AD0005B08C8009B318623953162302000C2001C
:102AE0000030C3000A30BB000030BC00A7316927AA
:102AF000953120003508D700D8015708BD00580887
:102B0000BE00A531D525953120003C08C5003B0805
:102B1000C400FF30BB000030BC00A73169279531ED
:102B200020003608BE003508BD00A631DB269531F1
:102B300020003B08D9005908C600FF30BB00003018
:102B4000BC00A7316927953120003608BE00350842
:102B5000BD00A631DB26953120003B08DA005A087B
:102B6000C700FF30BB000030BC00A731692795319A
:102B700020003608BE003508BD00A631DB269531A1
:102B800020003B08DB005B08C8009B3186239531A1
:102B900062302000C2000030C3000A30BB000030A9
:102BA000BC00A7316927953120003508D700D8012E
:102BB0005708BD005808BE00A531D5259531200025
:102BC0003C08C5003B08C400FF30BB000030BC001F
:102BD000A7316927953120003608BE003508BD00B1
:102BE000A631DB26953120003B08D9005908C600E4
:102BF000FF30BB000030BC00A731692795312000B1
:102C00003608BE003508BD00A631DB269531200010
:102C10003B08DA005A08C700FF30BB000030BC0098
:102C2000A7316927953120003608BE003508BD0060
:102C3000A631DB26953120003B08DB005B08C8008D
:102C40009B318623953162302000C2000030C300E2
:102C50000A30BB000030BC00A73169279531200045
:102C60003508D700D8015708BD005808BE00A53167
:102C7000D525953120003C08C5003B08C400FF3035
:102C8000BB000030BC00A731692795312000360811
:102C9000BE003508BD00A631DB26953120003B087B
:102CA000D9005908C600FF30BB000030BC00A73176
:102CB0006927953120003608BE003508BD00A631D1
:102CC000DB26953120003B08DA005A08C700FF30A8
:102CD000BB000030BC00A7316927953120003608C1
:102CE000BE003508BD00A631DB26953120003B082B
:102CF000DB005B08C8009B318623953162302000E1
:102D0000C2000030C3000A30BB000030BC00A73155
:102D10006927953120003508D700D8015708BD0034
:102D20005808BE00A531D525953120003C08C500C6
:102D30003B08C400FF30BB000030BC00A73169274E
:102D4000953120003608BE003508BD00A631DB26CF
:102D5000953120003B08D9005908C600FF30BB0060
:102D60000030BC00A7316927953120003608BE002D
:102D70003508BD00A631DB26953120003B08DA007E
:102D80005A08C700FF30BB000030BC00A7316927DC
:102D9000953120003608BE003508BD00A631DB267F
:102DA000953120003B08DB005B08C8009B3186237F
:102DB000953162302000C2000030C3000A30BB00F1
:102DC0000030BC00A7316927953120003508D700B5
:102DD000D8015708BD005808BE00A531D52595314A
:102DE00020003C08C5003B08C400FF30BB00003099
:102DF000BC00A7316927953120003608BE00350890
:102E0000BD00A631DB26953120003B08D9005908CA
:102E1000C600FF30BB000030BC00A73169279531E8
:102E200020003608BE003508BD00A631DB269531EE
:102E300020003B08DA005A08C700FF30BB00003012
:102E4000BC00A7316927953120003608BE0035083F
:102E5000BD00A631DB26953120003B08DB005B0876
:102E6000C8009B318623953162302000C2000030BB
:102E7000C3000A30BB000030BC00A7316927953180
:102E800020003508D700D8015708BD005808BE00FB
:102E9000A531D525953120003C08C5003B08C4006C
:102EA000FF30BB000030BC00A731692795312000FE
:102EB0003608BE003508BD00A631DB26953120005E
:102EC0003B08D9005908C600FF30BB000030BC00E9
:102ED000A7316927953120003608BE003508BD00AE
:102EE000A631DB26953120003B08DA005A08C700DE
:102EF000FF30BB000030BC00A731692795312000AE
:102F00003608BE003508BD00A631DB26953120000D
:102F10003B08DB005B08C8009B318623953162309B
:102F20002000C2000030C3000A30BB000030BC00EB
:102F3000A7316927953120003508D700D8015708F7
:102F4000BD005808BE00A531D525953120003C08AC
:102F5000C5003B08C400FF30BB000030BC00A731F7
:102F60006927953120003608BE003508BD00A6311E
:102F7000DB26953120003B08D9005908C600FF30F8
:102F8000BB000030BC00A73169279531200036080E
:102F9000BE003508BD00A631DB26953120003B0878
:102FA000DA005A08C700FF30BB000030BC00A73170
:102FB0006927953120003608BE003508BD00A631CE
:102FC000DB26953120003B08DB005B08C8009B3105
:102FD0008623953162302000A9000030AA0090318C
:102FE0003120953107302000D8001730D7006A30E3
:102FF000890BF82FD70BF82FD80BF82F00000800FB
:1030000000340034053480340F3480340A34003402
:103010001B3480341E3400341434003411348034B2
:1030200033348034363400343C3400343934803422
:10303000283400342D348034273480342234003452
:1030400063348034663400346C3400346934803442
:10305000783400347D3480347734803472340034F2
:1030600050340034553480345F3480345A34003462
:103070004B3480344E340034443400344134803492
:10308000C3348034C6340034CC340034C934803482
:10309000D8340034DD348034D7348034D234003432
:1030A000F0340034F5348034FF348034FA340034A2
:1030B000EB348034EE340034E4340034E1348034D2
:1030C000A0340034A5348034AF348034AA340034C2
:1030D000BB348034BE340034B4340034B134803472
:1030E00093348034963400349C34003499348034E2
:1030F000883400348D348034873480348234003412
:1031000083348134863401348C34013489348134FD
:10311000983401349D3481349734813492340134AD
:10312000B0340134B5348134BF348134BA3401341D
:10313000AB348134AE340134A4340134A13481344D
:10314000E0340134E5348134EF348134EA3401343D
:10315000FB348134FE340134F4340134F1348134ED
:10316000D3348134D6340134DC340134D93481345D
:10317000C8340134CD348134C7348134C23401348D
:1031800040340134453481344F3481344A3401347D
:103190005B3481345E34013454340134513481342D
:1031A00073348134763401347C340134793481349D
:1031B000683401346D3481346734813462340134CD
:1031C00023348134263401342C34013429348134BD
:1031D000383401343D34813437348134323401346D
:1031E00010340134153481341F3481341A340134DD
:1031F0000B3481340E34013404340134013481340D
:1032000003348334063403340C34033409348334F4
:10321000183403341D3483341734833412340334A4
:1032200030340334353483343F3483343A34033414
:103230002B3483342E340334243403342134833444
:1032400060340334653483346F3483346A34033434
:103250007B3483347E3403347434033471348334E4
:1032600053348334563403345C3403345934833454
:10327000483403344D348334473483344234033484
:10328000C0340334C5348334CF348334CA34033474
:10329000DB348334DE340334D4340334D134833424
:1032A000F3348334F6340334FC340334F934833494
:1032B000E8340334ED348334E7348334E2340334C4
:1032C000A3348334A6340334AC340334A9348334B4
:1032D000B8340334BD348334B7348334B234033464
:1032E00090340334953483349F3483349A340334D4
:1032F0008B3483348E340334843403348134833404
:1033000080340234853482348F3482348A340234F7
:103310009B3482349E3402349434023491348234A7
:10332000B3348234B6340234BC340234B934823417
:10333000A8340234AD348234A7348234A234023447
:10334000E3348234E6340234EC340234E934823437
:10335000F8340234FD348234F7348234F2340234E7
:10336000D0340234D5348234DF348234DA34023457
:10337000CB348234CE340234C4340234C134823487
:1033800043348234463402344C3402344934823477
:10339000583402345D348234573482345234023427
:1033A00070340234753482347F3482347A34023497
:1033B0006B3482346E3402346434023461348234C7
:1033C00020340234253482342F3482342A340234B7
:1033D0003B3482343E340234343402343134823467
:1033E00013348234163402341C34023419348234D7
:1033F000083402340D348234073482340234023407
:10340000080008000130F0000030F1000030F20048
:103410000030F30021003B08F0073C08F13D3D0877
:10342000F23D3E08F33D7308031D392A7208031D5F
:10343000392AC0307002A830713B0318392A013094
:10344000F0000030F1000030F2000030F300210005
:103450003B08F0073C08F13D3D08F23D3E08F33DD6
:103460007308BE007208BD007108BC007008BB0084
:10347000080000302100BE000030BD000030BC005C
:103480000030BB000800200061080F3E86000130BC
:1034900087000030C03F0030C13FC23FC33F6108DA
:1034A0000E3E8600013087008101A431D3249A3179
:1034B00020006108143E8600013087002908C03FC3
:1034C0002A08C13F6108163E86000130870000309F
:1034D000C03FC13F6108860001308700810161085B
:1034E000033E8600013087000030C03FC13F610AC3
:1034F0008600013087000030C03FC13F6108063EB2
:103500008600013087000030C03FC13F6108053EA2
:103510008600013087008101A231A422FD01FD0A4D
:10352000080020003C08C4003B08C300C101C201E0
:10353000C501C6013D0884003E088500003FBF006C
:10354000013FC000450AA62ABF35C00D890BA42A39
:10355000C01FB22A4408B0004308AF00CB30B1000E
:103560000030B92A4408B0004308AF00C830B100A9
:103570000030B2000330B3000030B400A531802524
:103580009A3103302000C3070030C43D0130C50725
:103590000030C63D003046020E3003194502031CC0
:1035A0009A2A0230BD070030BE3D0130C10700300D
:1035B000C23D003042020A300319410203180800DC
:1035C000982A2000C801C31FEC2AC209C309C20AF5
:1035D0000319C30AC801C80AC51FF72AC409C509C7
:1035E000C40A0319C50A0130C6004608C806C90145
:1035F000CA01420843040319262BC701C70AC31B8B
:103600000B2B0130C235C30D890B022B0130C600D4
:103610004608C707FF2A0130C935CA0D890B0C2B94
:1036200043084502031D162B42084402031C1D2BB0
:103630004208C4024308C53B49140130C336C20CDA
:10364000890B1E2B0130C702031D0B2B48080319E1
:103650002E2BC909CA09C90A0319CA0A4A08C30094
:103660004908C200080000302000B5000030B40056
:103670000030B3000030B2002C082B042A042904C7
:1036800003197D2BB601B60AAC1B522B0130A935AC
:10369000AA0DAB0DAC0D890B472B0130B1003108E1
:1036A000B607442B0130B235B30DB40DB50D890BFF
:1036B000532B2C083002031D672B2B082F02031DF0
:1036C000672B2A082E02031D672B29082D02031CD5
:1036D000722B2908AD022A08AE3B2B08AF3B2C0801
:1036E000B03B32140130AC36AB0CAA0CA90C890BE0
:1036F000732B0130B602031D522B3508AC00340881
:10370000AB003308AA003208A900080020004208D4
:103710004304031908004208860043088700160086
:10372000010403190800420886004308870042315B
:10373000403FC900413FCA0045084A02031DA22B71
:1037400044084902031C08004508AA004408A900CF
:103750000330AB000030AC00A4317E249B3120004C
:103760004208860043088700403FC900413FCA0025
:1037700029084907CB002A084A3DCC004B084C04D5
:10378000031908004B0886004C0887004608810092
:103790004B08013EC90000304C3DCA004908860074
:1037A0004A088700470881004B08023EC9000030E4
:1037B0004C3DCA00490886004A0887004808810035
:1037C000080020003B083C04031908003D083E04A3
:1037D0000319080041083F07C3004208403DC400E8
:1037E0003B0886003C0887004231403FC500413F0E
:1037F000C60044084602031DFF2B43084502031C74
:1038000008004008AA003F08A9000330AB000030C0
:10381000AC00A4317E249B3120003B0886003C088C
:103820008700403FC300413FC40029084307C70049
:103830002A08443DC8004808CA004708C9003E0895
:10384000CC003D08CB004A08B0004908AF004C0846
:10385000B2004B08B1004208AA004108A900033099
:10386000AB000030AC00A4317E249B3120002A083C
:10387000B4002908B300A53180250800A5313525FD
:103880009C3120002C082100A70020002B082100DB
:10389000A60020002A082100A500200029082100F8
:1038A000A40027082604250424040319922C2408C4
:1038B000BF072508C03D2608C13D2708C23DC21BE1
:1038C0008A2CC21B702C4208031D792C4108031D51
:1038D000792C4008031D792C05303F020318792C00
:1038E00021004208A3004108A2004008A1003F08AF
:1038F000812C00302100A3000030A2000030A10084
:103900000030A0002308C2002208C1002108C00026
:103910002008912C0030C2000030C1000030C000EF
:103920000430BF003F352A3E860001308700413F0A
:103930008A00403F0A009C310800A331D1239C310A
:10394000003A031DC72CEA2C023022002006031D7A
:10395000AF2CA63102269C312200A001EA2C2008BF
:10396000031DEA2C02302100B90039082200A00012
:10397000EA2C2200A001A00AEA2C22002008031D44
:10398000EA2C01302100B9003908C706EA2CA3311E
:10399000B0239C312100B900BA013A08003A03195A
:1039A000D22CAC2C3908013A0319BD2C033A031967
:1039B000A42C013A0319B92CAC2CEA2C47089331FA
:1039C00066230800883184202200A00108009C3171
:1039D0003E240800220020082100B900BA013A085C
:1039E000003A0319F42CFF2C3908003A0319DE2C95
:1039F000013A0319E22C033A0319E72CFF2C0800C3
:103A00007D0803190800200061080E3E8600013081
:103A100087000108F0000130F035FF3E031D0C2D3A
:103A200070350C39F10061080E3E860001308700C8
:103A3000710881000E1A1F2DF201F301232D0230AF
:103A4000F2000030F3007208F00061080E3E8600BC
:103A500001308700700881040E0CF000F00C700C2F
:103A60000139F10061080E3E8600013087007108BF
:103A700081046108133E8600013087000108712D22
:103A800061080F3E86000130870001308107413117
:103A90000030813D41310030813D41310030813D78
:103AA0006108133E8600013087008101080061082B
:103AB0000F3E860001308700FF3081074131FF3023
:103AC000813D4131FF30813D4131FF30813D013049
:103AD000F0006108133E8600013087007008810005
:103AE000080061080E3E8600013087000108F000E2
:103AF000F1017108003A03197E2D862D7008043AF1
:103B00000319572D0C3A0319402D862D080020006B
:103B1000D2006230BB000030BC003D30BD00003040
:103B2000BE000330BF000030C00021004808200064
:103B3000CF004F08C100210049082000D0005008E4
:103B4000C20021004A082000D1005108C30088317A
:103B500003209D31200052080319B92D5203031987
:103B6000B92D033052060319B92D08305206031D32
:103B7000F42D6230C2000030C3003D30C40000307C
:103B8000C50021004B082000CF004F08C6002100CF
:103B90004C082000D0005008C70021004D0820002C
:103BA000D1005108C8009B3186239D31623020002E
:103BB000C2000030C3003F30C4000030C500210007
:103BC0004B082000CF004F08C60021004C08200001
:103BD000D0005008C70021004D082000D100510836
:103BE000C8009B3186230800023052060319042EB8
:103BF000073052060319042E093052060319042E09
:103C000004305206031D212E6230C2000030C30072
:103C10003F30C4000030C50021004B082000CF0019
:103C20004F08C60021004C082000D0005008C700F3
:103C300021004D082000D1005108C8009B31862387
:103C40000800053052060319292E06305206031DBE
:103C500008006230C2000030C3003D30C4000030B4
:103C6000C50021004B082000CF004F08C6002100EE
:103C70004C082000D0005008C70021004D0820004B
:103C8000D1005108C8009B31862308000330210071
:103C9000A6000030A700260827040319CA2E00300A
:103CA0002000A9007030AA00A331A1239E31210079
:103CB000A0002008A80001302000A9007030AA0050
:103CC000A331A1239E312100A0002008A9000230C9
:103CD0002000A9007030AA00A331A1239E31210049
:103CE000A0002008AA0003302000A9007030AA001C
:103CF000A331A1239E312100A0002008AB00043095
:103D00002000A9007030AA00A331A1239E31210018
:103D1000A0002008AC0005302000A9007030AA00E7
:103D2000A331A1239E312100A0002008AD00063060
:103D30002000A9007030AA00A331A1239E312100E8
:103D4000A0002008AE0007302000A9007030AA00B3
:103D5000A331A1239E312100A0002008AF00A8308C
:103D60002000A9000030AA000830AB000030AC00F1
:103D7000FF30AD00FF30AE00A731B3279E312000E9
:103D800029082A040319CA2E01302100A602003096
:103D9000A73B4B2E40302000B4000030B50021007E
:103DA0002808A00020082000B60021002908A10052
:103DB00021082000B70021002A08A20022082000C4
:103DC000B80021002B08A30023082000B90021001F
:103DD0002C08A40024082000BA0021002D08A5000A
:103DE00025082000BB00A63134269E31A6310226CC
:103DF0009E31A231B6229E31883100209E31C330DF
:103E0000A431F3249E319A3143229E31A4313424CB
:103E10009E3112302000A9002330AA00A231E122F5
:103E20009E31A231A722080000302000AC000030F3
:103E3000AB000030AA003C30A9002100230820007C
:103E4000B000210022082000AF002100210820003E
:103E5000AE00210020082000AD009B3133239F31AC
:103E600020002A082100A900200029082100A8001C
:103E70003C302000A9000030AA00210029082000C1
:103E8000AC00210028082000AB00A63167269F3136
:103E900020002908013E2100A5002508AA003C3089
:103EA0002000BB000030BC00210029082000BE001B
:103EB000210028082000BD00A531D5259F31200014
:103EC0003B082100A5002508AB002200370821008F
:103ED000AF00220036082100AE0022003508210084
:103EE000AD00220034082100AC000A302000C200DE
:103EF0000030C30021002A08A500A60125082000E3
:103F0000BD00210026082000BE006430BB00003048
:103F1000BC00A631DB269F3120003C08C5003B08D1
:103F2000C4009A31E1229F31200042082100A700FD
:103F30002708AC000A302000BB000030BC00210084
:103F40002A08A500A60125082000BD00210026089A
:103F50002000BE00A631DB269F3120003B08210057
:103F6000A7002708AD000A302000C2000030C300BF
:103F700021002B08A500A60125082000BD00210076
:103F800026082000BE006430BB000030BC00A63113
:103F9000DB269F3120003C08C5003B08C4009A3155
:103FA000E1229F31200042082100A7002708AE002F
:103FB0000A302000BB000030BC0021002B08A50007
:103FC000A60125082000BD00210026082000BE0013
:103FD000A631DB269F3120003B082100A7002708DF
:103FE000AF0024080319FC2F2308BE002208BD00DF
:103FF0002108BC002008BB00AC30923142220800EE
:10454600080028001314080020001B140800280087
:104556001A1408001630210097000800FF34FF34B3
:10456600FF34FF34FF3402302000A9001A30AA00BD
:10457600A231EA22080032009101920193019401CE
:1045860095019601080020002A082200D600200086
:1045960029082200D500080020002A082200D4009D
:1045A600200029082200D300080020002A08220043
:1045B600D200200029082200D100080020002A0885
:1045C6002200D000200029082200CF000800200089
:1045D6002A082200CC00200029082200CB0008006F
:1045E6006030320099009B019D0107309F009E01BB
:1045F600080022004F0850040319080050088A00DA
:104606004F080A00A331080022004B084C04031986
:1046160008004C088A004B080A00A3310800031062
:1046260022000E1C0314031C1B2B22000E14080070
:1046360022000E100800A4311F24A3319E31462605
:10464600A3318B170B179C319D24A331262B6400B5
:10465600800101310130FE020030FF3B7F087E04FD
:10466600031900342B2BFE0012001E000130FE023F
:104676000030FF3B7F087E0403190034372B2200ED
:104686005508560403194C2B56088A0055080A008B
:10469600A331270099110800220053085404031976
:1046A600592B54088A0053080A00A331270019120F
:1046B60008002200510852040319662B52088A008A
:1046C60051080A00A3312700991208002000111092
:1046D60021005608F1005508F000A3318323A331C9
:1046E600A231FC2208002000141221005408F10017
:1046F6005308F000A3319223A331A3310723080006
:1047060020001B1D8D2B1B1071089A007008990044
:104716001B14080071089A00700899000800280008
:104726001A1D9C2B1A1071089900700898001A140B
:1047360008007108990070089800080020002A08EF
:104746003100920020002908310091001517151438
:1047560000000000310013080800200061088600F0
:10476600013087000108A9002908AA00610886000F
:104776000130870081012A08080021003E08200038
:10478600AC0021003D082000AB0021003C082000C1
:10479600AA0021003B082000A900080020006108AB
:1047A600053E86000130870001080319E22B6108E7
:1047B600053E860001308700810101300800003087
:1047C6000800280094019201313091002000131254
:1047D600280012082200CE00280011082200CD0071
:1047E600F5302800930008002000B2003208B1001E
:1047F60031082100C80020002F08B100310821002F
:10480600C90020003008B10031082100CA000800A4
:104816002000B2003208B10031082100CB00200090
:104826002F08B10031082100CC0020003008B1006B
:1048360031082100CD000800A231BE22A431A631E4
:104846009C26A431A231F322A431A231AD22A43197
:10485600A331E423A431A4319A24A431A4314A24F7
:10486600080021302200AA002730AB003E30AC0001
:104876000C30AD007B30AE000030AF000730B0002A
:104886001530B1005D30B2000430B30008002000DE
:104896009C01F0309A00DD30990011101A082100B1
:1048A600D600200019082100D50011140030200080
:1048B600A9001030AA00A231E122F13020009B00AD
:1048C600080000340034003400340034003400346E
:1048D60000344D34053448341E3424340F34003447
:1048E6000034003400340034003400340034003422
:1048F6000034003400342000AD01AE01291C872CA1
:104906002B08AD072C08AE3D0130AB35AC0D890B3D
:10491600882C0130AA36A90C890B8D2C29082A046B
:10492600031D812C2E08AA002D08A90008002800C6
:104936009B01F0309900DD30980020001412280009
:1049460019082100D400280018082100D3001416E5
:1049560002302000A9000030AA00A231EA22F1307C
:1049660028009A00080028001108F2007208FA00D0
:104976001208F2007208F9007A08F200F3017908C9
:10498600F400F5017408F500F40172087404F700E8
:1049960073087504F8007808F1007708F00008003D
:1049A600280011082000AB002B08B30028001208CD
:1049B6002000AB002B08B2003308AB00AC01320874
:1049C600AD00AE012D08AE00AD012B082D04B000E0
:1049D6002C082E04B1003108AA003008A9000800EE
:1049E6002000AC002C08031908002C08AB002B088B
:1049F600E1000030A9001D30AA00A231C622A43170
:104A060000302000A9001D30AA00A231CF22A43117
:104A160062302000A9000730AA00A231D82208007F
:104A260000308B1B01302000AC002A0831009200B8
:104A3600200029083100910020002B083100930046
:104A4600151715158B1355309600AA309600951438
:104A560095182B2D151120002C0C031C8B130318F5
:104A66008B170800200061080F3E86000130870082
:104A7600403FAD00413FAE00423FAF00433FB00074
:104A860061080F3E8600013087000030C03F0030CD
:104A9600C13FC23FC33F3008AC002F08AB002E0811
:104AA600AA002D08A900080020002A08B10029083C
:104AB600B0002C08B3002B08B200AF0129082A0465
:104AC60003196B2D2B082C0403196B2DAF01AF0AAC
:104AD6002F080319702D0130712D0030AE002D08FE
:104AE600860087012E0881003308AC003208AB002F
:104AF6003108AA003008A900080020003208BA00D0
:104B06003108B9003008B8002F08B7000130B302E9
:104B16000030B43B330A0319340A03190800390874
:104B260086003A0887000108B5003508B60001304E
:104B3600B9070030BA3D37088600380887003608BE
:104B460081000130B7070030B83D892D20004F089D
:104B56005004031908004F08860050088700160005
:104B66000104031908005008BC004F08BB000030C0
:104B7600BD00BE004F088600500887004231403F06
:104B8600BF00413FC0005108D4005408C10052087C
:104B9600D5005508C2005308D6005608C300883110
:104BA6000320080020003B083C040319FD2DC0012A
:104BB600C00ABC1BE82D0130BB35BC0D890BDF2DAF
:104BC6000130BF003F08C007DC2D3C083E02031D34
:104BD600EE2D3B083D02031CF42D3B08BD023C08AC
:104BE600BE3B0130BC36BB0C890BF52D0130C00233
:104BF600031DE82D3E08BC003D08BB0008006230DE
:104C06002000CF000030D000210048082000D70047
:104C16005708D100210049082000D8005808D200C2
:104C260021004A082000D9005908D300A531A9253A
:104C3600A6318C302000BB002530BC004430BD00BE
:104C4600A830BE009A319122A631E8302000BB0080
:104C56002330BC003030BD00A830BE009A3191220E
:104C6600080020003708BC003C08AF003808BD002B
:104C76003D08B0003608A4310B24A63120003A08BE
:104C8600BC003C08AF003B08BD003D08B000390839
:104C9600A331F723A63130302000A9002730AA001F
:104CA6003508AC003408AB003E30BC003C08AD0013
:104CB600A531572520002C08E5002B08E4002A081A
:104CC600E3002908E20008002000AF01B00129082E
:104CD6002A040319972EAE01AE0AAA1B7C2E0130B8
:104CE600A935AA0D890B732E0130AD002D08AE072C
:104CF600702E0130AF35B00D890B7D2E2A082C029F
:104D0600031D872E29082B02031C8E2E2908AB02B1
:104D16002A08AC3B2F140130AA36A90C890B8F2E1A
:104D26000130AE02031D7C2E3008AA002F08A90010
:104D3600080022008C018E01373021008C003A30A9
:104D46008E0023008E0137308C0024008C018E01EA
:104D560025008C018E01373026008C003F308E00F6
:104D66003F3027008C003F308E009911191299129E
:104D760098151816981697151716971600302000CE
:104D8600A9001A30AA00A231C622A631A3302000FB
:104D9600A9002230AA00A231CF22A631013020007C
:104DA600A9001A30AA00A231D82221001016080044
:104DB6002000C101BE1FE62EBD09BE09BD0A0319AA
:104DC600BE0AC101C10ABC1FED2EBB09BC09BB0A44
:104DD6000319BC0A3B083C040319142FC001C00A7E
:104DE600BC1BFF2E0130BB35BC0D890BF62E0130E6
:104DF600BF003F08C007F32E3C083E02031D052FE7
:104E06003B083D02031C0B2F3B08BD023C08BE3B82
:104E16000130BC36BB0C890B0C2F0130C002031DC0
:104E2600FF2E410803191C2FBD09BE09BD0A03192F
:104E3600BE0A3E08BC003D08BB00080062302000E8
:104E4600C2000030C300210046082000C500210032
:104E560045082000C400FF30D7005708C600FF30C1
:104E6600D8005808C700FF30D9005908C8009B3140
:104E76008623A73162302000A9000030AA009031B5
:104E86003120A73103302000D8000830D700773012
:104E9600890B4B2FD70B4B2FD80B4B2F3F302100B5
:104EA60045064604031D642FC501C6016230200075
:104EB600CF000030D000D101D201D301A531A92500
:104EC60008000130C5070030C63D080022004A0828
:104ED6002000AC00220049082000AB002200480850
:104EE6002000AA00220047082000A9004C30B0008C
:104EF6009530AF007F30AE002D30AD0090310120EF
:104F0600A7310130200029072200C7000030200009
:104F16002A3D2200C800003020002B3D2200C90097
:104F2600003020002C3D2200CA0047082000B700B0
:104F3600220048082000B800220049082000B900D5
:104F460022004A082000BA001130BA36B90CB80C53
:104F5600B70C890BA82F3808B6003708B50008002B
:104F660020002E08BE002D08BD00BB01BC012B0889
:104F76002C040319FB2F3B08290786003C082A3D11
:104F860087000108AF00B0013E08B2003D08B1003D
:104F96003208B100B2012F083106B30030083206DC
:104FA600B400FF303305B50000303405B600B53522
:104FB600B60D0030350784009830363D8500003F39
:104FC600B700013FB8003D08BA00B90137083906F5
:104FD600BD0038083A06BE000130BB070030BC3DB4
:104FE6002C083C02031DF92F2B083B02031CBE2F85
:104FF6003E08AA003D08A9000800FF34003400342A
:105006000034FF34003400340034FF34FF340034FD
:10501600FF34FF34FF340034FF34A5340034003449
:10502600FF34FF34FF34FF34FF34003400340034DF
:1050360000345034EF34F034A3340A34A134D2347B
:10504600693499344C3400347F34FF340034FF34EF
:10505600453400340034003400345434DC345434E1
:1050660005345034BD345434AD341034EB34443448
:10507600ED34C4343D3450348B345434FD34503420
:10508600EB345434DC34543405344434ED34543481
:10509600AD348434B9345034BD345034E7348434B8
:1050A6008D345434FD348434BD34FF34003400343C
:1050B600FF3445340034FF34FF3400340034FF3409
:1050C600003400340034FF34FF340034FF3400343D
:1050D600033408340D34123417341C342134263486
:1050E6002B34303435343A343E34023409340C34FB
:1050F600133416341D34203427342A3431343434EE
:105106003B343D34043407340E34113418341B3424
:10511600223425342C342F34363439343F34013498
:105126000A340B34143415341E341F34283429340D
:10513600323433343C34053406340F3410341934E5
:105146001A34233424342D342E343734383400348E
:105156000034003400343334003424340034103442
:06516600003401340034A6
:020000040001F9
:08000000FF3FFF3FFF3FFF3F00
:08000E008C3F333FFF1FFF3F51
:00000001FF
